{
  "_format": "hh-sol-artifact-1",
  "contractName": "Trade",
  "sourceName": "contracts/Trade.sol",
  "abi": [
    {
      "inputs": [],
      "stateMutability": "nonpayable",
      "type": "constructor"
    },
    {
      "anonymous": false,
      "inputs": [
        {
          "indexed": false,
          "internalType": "uint8",
          "name": "version",
          "type": "uint8"
        }
      ],
      "name": "Initialized",
      "type": "event"
    },
    {
      "anonymous": false,
      "inputs": [
        {
          "indexed": false,
          "internalType": "address",
          "name": "userAddress",
          "type": "address"
        },
        {
          "indexed": false,
          "internalType": "address payable",
          "name": "relayerAddress",
          "type": "address"
        },
        {
          "indexed": false,
          "internalType": "bytes",
          "name": "functionSignature",
          "type": "bytes"
        }
      ],
      "name": "MetaTransactionExecuted",
      "type": "event"
    },
    {
      "anonymous": false,
      "inputs": [
        {
          "indexed": false,
          "internalType": "address",
          "name": "user",
          "type": "address"
        },
        {
          "indexed": false,
          "internalType": "uint256",
          "name": "_amount",
          "type": "uint256"
        }
      ],
      "name": "Pazabuy",
      "type": "event"
    },
    {
      "anonymous": false,
      "inputs": [
        {
          "indexed": false,
          "internalType": "address",
          "name": "user",
          "type": "address"
        },
        {
          "indexed": false,
          "internalType": "uint256",
          "name": "_amount",
          "type": "uint256"
        }
      ],
      "name": "Pazasell",
      "type": "event"
    },
    {
      "anonymous": false,
      "inputs": [
        {
          "indexed": true,
          "internalType": "bytes32",
          "name": "role",
          "type": "bytes32"
        },
        {
          "indexed": true,
          "internalType": "bytes32",
          "name": "previousAdminRole",
          "type": "bytes32"
        },
        {
          "indexed": true,
          "internalType": "bytes32",
          "name": "newAdminRole",
          "type": "bytes32"
        }
      ],
      "name": "RoleAdminChanged",
      "type": "event"
    },
    {
      "anonymous": false,
      "inputs": [
        {
          "indexed": true,
          "internalType": "bytes32",
          "name": "role",
          "type": "bytes32"
        },
        {
          "indexed": true,
          "internalType": "address",
          "name": "account",
          "type": "address"
        },
        {
          "indexed": true,
          "internalType": "address",
          "name": "sender",
          "type": "address"
        }
      ],
      "name": "RoleGranted",
      "type": "event"
    },
    {
      "anonymous": false,
      "inputs": [
        {
          "indexed": true,
          "internalType": "bytes32",
          "name": "role",
          "type": "bytes32"
        },
        {
          "indexed": true,
          "internalType": "address",
          "name": "account",
          "type": "address"
        },
        {
          "indexed": true,
          "internalType": "address",
          "name": "sender",
          "type": "address"
        }
      ],
      "name": "RoleRevoked",
      "type": "event"
    },
    {
      "anonymous": false,
      "inputs": [
        {
          "indexed": false,
          "internalType": "address",
          "name": "token",
          "type": "address"
        },
        {
          "indexed": false,
          "internalType": "uint256",
          "name": "amount",
          "type": "uint256"
        },
        {
          "indexed": false,
          "internalType": "address",
          "name": "adminWallet",
          "type": "address"
        }
      ],
      "name": "TokenWithdrawl",
      "type": "event"
    },
    {
      "inputs": [],
      "name": "DEFAULT_ADMIN_ROLE",
      "outputs": [
        {
          "internalType": "bytes32",
          "name": "",
          "type": "bytes32"
        }
      ],
      "stateMutability": "view",
      "type": "function"
    },
    {
      "inputs": [],
      "name": "FACTORY_ROLE",
      "outputs": [
        {
          "internalType": "bytes32",
          "name": "",
          "type": "bytes32"
        }
      ],
      "stateMutability": "view",
      "type": "function"
    },
    {
      "inputs": [],
      "name": "PCT_BASE",
      "outputs": [
        {
          "internalType": "uint256",
          "name": "",
          "type": "uint256"
        }
      ],
      "stateMutability": "view",
      "type": "function"
    },
    {
      "inputs": [
        {
          "internalType": "uint256",
          "name": "_amount",
          "type": "uint256"
        }
      ],
      "name": "buy",
      "outputs": [],
      "stateMutability": "nonpayable",
      "type": "function"
    },
    {
      "inputs": [
        {
          "internalType": "address",
          "name": "_payee",
          "type": "address"
        },
        {
          "internalType": "address",
          "name": "_beneficiary",
          "type": "address"
        },
        {
          "internalType": "uint256",
          "name": "_amount",
          "type": "uint256"
        }
      ],
      "name": "buyWithApproval",
      "outputs": [],
      "stateMutability": "nonpayable",
      "type": "function"
    },
    {
      "inputs": [
        {
          "internalType": "address",
          "name": "userAddress",
          "type": "address"
        },
        {
          "internalType": "bytes",
          "name": "functionSignature",
          "type": "bytes"
        },
        {
          "internalType": "bytes32",
          "name": "sigR",
          "type": "bytes32"
        },
        {
          "internalType": "bytes32",
          "name": "sigS",
          "type": "bytes32"
        },
        {
          "internalType": "uint8",
          "name": "sigV",
          "type": "uint8"
        }
      ],
      "name": "executeMetaTransaction",
      "outputs": [
        {
          "internalType": "bytes",
          "name": "",
          "type": "bytes"
        }
      ],
      "stateMutability": "nonpayable",
      "type": "function"
    },
    {
      "inputs": [],
      "name": "factor",
      "outputs": [
        {
          "internalType": "uint256",
          "name": "",
          "type": "uint256"
        }
      ],
      "stateMutability": "view",
      "type": "function"
    },
    {
      "inputs": [],
      "name": "getChainID",
      "outputs": [
        {
          "internalType": "uint256",
          "name": "",
          "type": "uint256"
        }
      ],
      "stateMutability": "view",
      "type": "function"
    },
    {
      "inputs": [
        {
          "internalType": "address",
          "name": "user",
          "type": "address"
        }
      ],
      "name": "getNonce",
      "outputs": [
        {
          "internalType": "uint256",
          "name": "nonce",
          "type": "uint256"
        }
      ],
      "stateMutability": "view",
      "type": "function"
    },
    {
      "inputs": [
        {
          "internalType": "bytes32",
          "name": "role",
          "type": "bytes32"
        }
      ],
      "name": "getRoleAdmin",
      "outputs": [
        {
          "internalType": "bytes32",
          "name": "",
          "type": "bytes32"
        }
      ],
      "stateMutability": "view",
      "type": "function"
    },
    {
      "inputs": [],
      "name": "getTokenPrice",
      "outputs": [
        {
          "internalType": "uint256",
          "name": "",
          "type": "uint256"
        }
      ],
      "stateMutability": "view",
      "type": "function"
    },
    {
      "inputs": [
        {
          "internalType": "bytes32",
          "name": "role",
          "type": "bytes32"
        },
        {
          "internalType": "address",
          "name": "account",
          "type": "address"
        }
      ],
      "name": "grantRole",
      "outputs": [],
      "stateMutability": "nonpayable",
      "type": "function"
    },
    {
      "inputs": [
        {
          "internalType": "bytes32",
          "name": "role",
          "type": "bytes32"
        },
        {
          "internalType": "address",
          "name": "account",
          "type": "address"
        }
      ],
      "name": "hasRole",
      "outputs": [
        {
          "internalType": "bool",
          "name": "",
          "type": "bool"
        }
      ],
      "stateMutability": "view",
      "type": "function"
    },
    {
      "inputs": [
        {
          "internalType": "address",
          "name": "_usdc",
          "type": "address"
        },
        {
          "internalType": "address",
          "name": "_paza",
          "type": "address"
        },
        {
          "internalType": "address",
          "name": "_admin",
          "type": "address"
        },
        {
          "internalType": "address",
          "name": "_factory",
          "type": "address"
        },
        {
          "internalType": "uint256",
          "name": "_pazaPrice",
          "type": "uint256"
        }
      ],
      "name": "initialize",
      "outputs": [],
      "stateMutability": "nonpayable",
      "type": "function"
    },
    {
      "inputs": [],
      "name": "paza",
      "outputs": [
        {
          "internalType": "contract IPaza",
          "name": "",
          "type": "address"
        }
      ],
      "stateMutability": "view",
      "type": "function"
    },
    {
      "inputs": [],
      "name": "price",
      "outputs": [
        {
          "internalType": "uint256",
          "name": "",
          "type": "uint256"
        }
      ],
      "stateMutability": "view",
      "type": "function"
    },
    {
      "inputs": [
        {
          "internalType": "bytes32",
          "name": "role",
          "type": "bytes32"
        },
        {
          "internalType": "address",
          "name": "account",
          "type": "address"
        }
      ],
      "name": "renounceRole",
      "outputs": [],
      "stateMutability": "nonpayable",
      "type": "function"
    },
    {
      "inputs": [
        {
          "internalType": "bytes32",
          "name": "role",
          "type": "bytes32"
        },
        {
          "internalType": "address",
          "name": "account",
          "type": "address"
        }
      ],
      "name": "revokeRole",
      "outputs": [],
      "stateMutability": "nonpayable",
      "type": "function"
    },
    {
      "inputs": [
        {
          "internalType": "address",
          "name": "_factory",
          "type": "address"
        }
      ],
      "name": "setFactoryRole",
      "outputs": [],
      "stateMutability": "nonpayable",
      "type": "function"
    },
    {
      "inputs": [
        {
          "internalType": "address",
          "name": "_paza",
          "type": "address"
        }
      ],
      "name": "setPazaContract",
      "outputs": [],
      "stateMutability": "nonpayable",
      "type": "function"
    },
    {
      "inputs": [
        {
          "internalType": "uint256",
          "name": "_price",
          "type": "uint256"
        }
      ],
      "name": "setPazaPrice",
      "outputs": [],
      "stateMutability": "nonpayable",
      "type": "function"
    },
    {
      "inputs": [
        {
          "internalType": "address",
          "name": "_usdc",
          "type": "address"
        }
      ],
      "name": "setUsdcContract",
      "outputs": [],
      "stateMutability": "nonpayable",
      "type": "function"
    },
    {
      "inputs": [
        {
          "internalType": "bytes4",
          "name": "interfaceId",
          "type": "bytes4"
        }
      ],
      "name": "supportsInterface",
      "outputs": [
        {
          "internalType": "bool",
          "name": "",
          "type": "bool"
        }
      ],
      "stateMutability": "view",
      "type": "function"
    },
    {
      "inputs": [],
      "name": "usdc",
      "outputs": [
        {
          "internalType": "contract IERC20MetadataUpgradeable",
          "name": "",
          "type": "address"
        }
      ],
      "stateMutability": "view",
      "type": "function"
    },
    {
      "inputs": [
        {
          "internalType": "address",
          "name": "owner",
          "type": "address"
        },
        {
          "internalType": "uint256",
          "name": "nonce",
          "type": "uint256"
        },
        {
          "internalType": "uint256",
          "name": "chainID",
          "type": "uint256"
        },
        {
          "internalType": "bytes",
          "name": "functionSignature",
          "type": "bytes"
        },
        {
          "internalType": "bytes32",
          "name": "sigR",
          "type": "bytes32"
        },
        {
          "internalType": "bytes32",
          "name": "sigS",
          "type": "bytes32"
        },
        {
          "internalType": "uint8",
          "name": "sigV",
          "type": "uint8"
        }
      ],
      "name": "verify",
      "outputs": [
        {
          "internalType": "bool",
          "name": "",
          "type": "bool"
        }
      ],
      "stateMutability": "view",
      "type": "function"
    },
    {
      "inputs": [
        {
          "internalType": "address",
          "name": "_token",
          "type": "address"
        },
        {
          "internalType": "address",
          "name": "_adminWallet",
          "type": "address"
        }
      ],
      "name": "withdraw",
      "outputs": [],
      "stateMutability": "nonpayable",
      "type": "function"
    }
  ],
  "bytecode": "0x608080604052346100c1576000549060ff8260081c1661006f575060ff80821610610034575b604051611e7190816100c78239f35b60ff90811916176000557f7f26b83ff96e1f2b6a682f133852f6798a09c465da95921460cefb3847402498602060405160ff8152a138610025565b62461bcd60e51b815260206004820152602760248201527f496e697469616c697a61626c653a20636f6e747261637420697320696e697469604482015266616c697a696e6760c81b6064820152608490fd5b600080fdfe60806040526004361015610013575b600080fd5b60003560e01c806301ffc9a71461021257806304a0fb17146102095780630c53c51c14610200578063248a9ca3146101f75780632d0335ab146101ee5780632f2ff15d146101e557806330b6e68b146101dc57806336568abe146101d35780633e413bee146101ca578063455882e7146101c15780634b94f50e1461017957806354f703f8146101b8578063564b81ef146101af5780636281133d146101a657806364494f1a1461019d578063776152581461019457806391d148541461018b5780639b16a01914610182578063a035b1fe14610179578063a217fddf14610170578063d547741f14610167578063d673e9ef1461015e578063d96a094a14610155578063f7013ef61461014c578063f940e385146101435763fc157cb41461013b57600080fd5b61000e610f52565b5061000e610def565b5061000e610ce2565b5061000e610b2c565b5061000e610ade565b5061000e610a9e565b5061000e610a81565b5061000e61080f565b5061000e610a57565b5061000e610a04565b5061000e6108f5565b5061000e6108d3565b5061000e610867565b5061000e61084b565b5061000e61082e565b5061000e6107d1565b5061000e6107a7565b5061000e610708565b5061000e6106ba565b5061000e6105e7565b5061000e6105ac565b5061000e61057c565b5061000e610438565b5061000e610269565b503461000e57602036600319011261000e5760043563ffffffff60e01b811680910361000e57602090637965db0b60e01b8114908115610258575b506040519015158152f35b6301ffc9a760e01b1490503861024d565b503461000e57600036600319011261000e5760206040517fdfbefbf47cfe66b701d8cfdbce1de81c821590819cb07e71cb01b6602fb0ee278152f35b600435906001600160a01b038216820361000e57565b602435906001600160a01b038216820361000e57565b604435906001600160a01b038216820361000e57565b606435906001600160a01b038216820361000e57565b50634e487b7160e01b600052604160045260246000fd5b6040810190811067ffffffffffffffff82111761033057604052565b6103386102fd565b604052565b90601f8019910116810190811067ffffffffffffffff82111761033057604052565b60209067ffffffffffffffff811161037d575b601f01601f19160190565b6103856102fd565b610372565b81601f8201121561000e578035906103a18261035f565b926103af604051948561033d565b8284526020838301011161000e57816000926020809301838601378301015290565b60ff81160361000e57565b60005b8381106103ef5750506000910152565b81810151838201526020016103df565b90602091610418815180928185528580860191016103dc565b601f01601f1916010190565b9060206104359281815201906103ff565b90565b503461000e5760a036600319011261000e576104526102a5565b6024359067ffffffffffffffff821161000e577f5845892132946850460bff5a0083f71031bc5bf9aadcd40f1de79423eac9b10b61049761057893369060040161038a565b6104d96104d46084356104a9816103d1565b6001600160a01b0386166000908152600160205260409020546064359060443590869046908a611779565b6115ed565b6001600160a01b03831660009081526001602052604090208054906104fd82611643565b90556001600160a01b03841660009081526001602052604090205560008060405160208101906105408161053289888661165b565b03601f19810183528261033d565b519082305af192610558610552611687565b946116b7565b610569604051928392339084611703565b0390a160405191829182610424565b0390f35b503461000e57602036600319011261000e5760043560005260986020526020600160406000200154604051908152f35b503461000e57602036600319011261000e576001600160a01b036105ce6102a5565b1660005260016020526020604060002054604051908152f35b503461000e57604036600319011261000e576004356106046102bb565b600091808352609860205261061f60016040852001546111e2565b8083526098602090815260408085206001600160a01b0385166000908152925290205460ff161561064e578280f35b8083526098602090815260408085206001600160a01b038516600090815292529020805460ff191660011790556001600160a01b038061068c611df5565b169216907f2f8788117e7eff1d82e926ec794901d17c78024a50270940304540a733656f0d8480a438808280f35b503461000e57602036600319011261000e576106d46102a5565b6106dc610f70565b6001600160a01b03166106f0811515611a5f565b6001600160601b0360a01b60cb54161760cb55600080f35b503461000e57604036600319011261000e576107226102bb565b6001600160a01b0380610733611df5565b169082160361074a576107489060043561138b565b005b60405162461bcd60e51b815260206004820152602f60248201527f416363657373436f6e74726f6c3a2063616e206f6e6c792072656e6f756e636560448201526e103937b632b9903337b91039b2b63360891b6064820152608490fd5b503461000e57600036600319011261000e5760ca546040516001600160a01b039091168152602090f35b503461000e57602036600319011261000e576107486107ee6102a5565b6107f6610f70565b61080a6001600160a01b0382161515611a5f565b6112bd565b503461000e57600036600319011261000e57602060cc54604051908152f35b503461000e57600036600319011261000e57602060405160048152f35b503461000e57600036600319011261000e576020604051468152f35b503461000e5760e036600319011261000e576108816102a5565b60643567ffffffffffffffff811161000e576020916108a76108c992369060040161038a565b60c435916108b4836103d1565b60a43591608435916044359060243590611779565b6040519015158152f35b503461000e57602036600319011261000e576108ed610f70565b60043560cc55005b503461000e57606036600319011261000e576107486109126102a5565b61091a6102bb565b6109af604435926109296110e6565b60ca54610946906001600160a01b03165b6001600160a01b031690565b61098a61098161097b60405163313ce56760e01b8152602081600481885afa9081156109f7575b6000916109c9575b50611aaf565b87611435565b60cc5490611ace565b9161099a62989680841015611aee565b6109a8612710840615611b2b565b3091611c03565b60cb546109c4906001600160a01b031661093a565b611bc2565b6109ea915060203d81116109f0575b6109e2818361033d565b810190611a9a565b38610975565b503d6109d8565b6109ff61172c565b61096d565b503461000e57604036600319011261000e57602060ff610a4b610a256102bb565b6004356000526098845260406000209060018060a01b0316600052602052604060002090565b54166040519015158152f35b503461000e57600036600319011261000e5760cb546040516001600160a01b039091168152602090f35b503461000e57600036600319011261000e57602060405160008152f35b503461000e57604036600319011261000e57610748600435610abe6102bb565b90806000526098602052610ad96001604060002001546111e2565b61138b565b503461000e57602036600319011261000e57610af86102a5565b610b00610f70565b6001600160a01b0316610b14811515611a5f565b6001600160601b0360a01b60ca54161760ca55600080f35b503461000e5760208060031936011261000e5760ca547f36e3ce5f580307aeca6d943768f27710de6371adb701cbad4f20d844f0afd1d49160043591610c2f9190610b7f906001600160a01b031661093a565b610c27610bb561098161097b60405163313ce56760e01b81528681600481895afa908115610cd5575b600091610cbe5750611aaf565b8093610bc662989680831015611aee565b610bd4612710830615611b2b565b610c0981610be0611df5565b6040516370a0823160e01b81526001600160a01b03909116600482015291829081906024820190565b0381885afa918215610cb1575b600092610c84575b50501015611b7f565b6109a8611df5565b60cb54610c58908290610c4a906001600160a01b031661093a565b610c52611df5565b90611bc2565b610c60611df5565b604080516001600160a01b039092168252602082019290925290819081015b0390a1005b610ca39250803d10610caa575b610c9b818361033d565b810190611b70565b3880610c1e565b503d610c91565b610cb961172c565b610c16565b6109ea9150873d89116109f0576109e2818361033d565b610cdd61172c565b610ba8565b503461000e5760a036600319011261000e57610cfc6102a5565b610d5f610d076102bb565b91610d106102d1565b610d186102e7565b9060005494610d3e60ff8760081c161580978198610de1575b8115610dc1575b50611897565b85610d51600160ff196000541617600055565b610da8575b608435936118fa565b610d6557005b610d7561ff001960005416600055565b604051600181527f7f26b83ff96e1f2b6a682f133852f6798a09c465da95921460cefb3847402498908060208101610c7f565b610dbc61010061ff00196000541617600055565b610d56565b303b15915081610dd3575b5038610d38565b6001915060ff161438610dcc565b600160ff8216109150610d31565b503461000e57604036600319011261000e577f5218aab3a2e1a3b0f35a5fceae24a5a5db2aae40ef157cbef83e6f8fdab8c344610e2a6102a5565b610e326102bb565b610e3a610f70565b6040516370a0823160e01b81523060048201526001600160a01b03831692909160208084602481885afa938415610f45575b600094610f22575b5060405163a9059cbb60e01b81526001600160a01b03831660048201526024810185905293949293610c7f938290829060449082906000905af18015610f15575b610ee7575b5050604080516001600160a01b039485168152602081019590955292169183019190915281906060820190565b81610f0692903d10610f0e575b610efe818361033d565b810190611c69565b503880610eba565b503d610ef4565b610f1d61172c565b610eb5565b610c7f939450610f3e90823d8411610caa57610c9b818361033d565b9392610e74565b610f4d61172c565b610e6c565b503461000e57600036600319011261000e5760206040516103e88152f35b610f78611df5565b6001600160a01b03811660009081527fddaeee8e61001dbcfaf4f92c6943552c392a86665d734d3c1905d7b3c23b1b1e602052604090205460ff1615610fbb5750565b610fcd906001600160a01b031661154f565b6000610fd7611452565b906030610fe3836114a3565b536078610fef836114b9565b5360415b6001811161109757611093603761107b86610532876110128815611504565b6110756040519586947f416363657373436f6e74726f6c3a206163636f756e74200000000000000000006020870152611054815180926020858a0191016103dc565b8501016011907001034b99036b4b9b9b4b733903937b6329607d1b81520190565b906112a6565b60405162461bcd60e51b815291829160048301610424565b0390fd5b9080600f6110d4921660108110156110d9575b6f181899199a1a9b1b9c1cb0b131b232b360811b901a6110ca84866114ca565b5360041c916114e9565b610ff3565b6110e161148c565b6110aa565b6110ee611df5565b6001600160a01b03811660009081527f30e73db29de075e126bc6cee65d7d02100bcc43e7f5f4952885e03c0bdec662d60205260409020547fdfbefbf47cfe66b701d8cfdbce1de81c821590819cb07e71cb01b6602fb0ee27919060ff1615611155575050565b611167906001600160a01b031661154f565b90611170611452565b90603061117c836114a3565b536078611188836114b9565b5360415b600181116111ab57611093603761107b86610532876110128815611504565b9080600f6111dd921660108110156110d9576f181899199a1a9b1b9c1cb0b131b232b360811b901a6110ca84866114ca565b61118c565b6111ea611df5565b60008281526098602090815260408083206001600160a01b038516845290915290205460ff1615611219575050565b61122b906001600160a01b031661154f565b90611234611452565b906030611240836114a3565b53607861124c836114b9565b5360415b6001811161126f57611093603761107b86610532876110128815611504565b9080600f6112a1921660108110156110d9576f181899199a1a9b1b9c1cb0b131b232b360811b901a6110ca84866114ca565b611250565b906112b9602092828151948592016103dc565b0190565b6001600160a01b03811660009081527f30e73db29de075e126bc6cee65d7d02100bcc43e7f5f4952885e03c0bdec662d60205260408120547fdfbefbf47cfe66b701d8cfdbce1de81c821590819cb07e71cb01b6602fb0ee279060ff161561132457505050565b8082526098602090815260408084206001600160a01b038616600090815292529020805460ff191660011790557f2f8788117e7eff1d82e926ec794901d17c78024a50270940304540a733656f0d6001600160a01b0380611383611df5565b1694169280a4565b600090808252609860205260ff6113b784604085209060018060a01b0316600052602052604060002090565b54166113c257505050565b8082526098602090815260408084206001600160a01b038616600090815292529020805460ff191690557ff6391f5c32d9c69d2a47ea670b442974b53935d1edc7fd64eb21e047a839171b6001600160a01b0380611383611df5565b50634e487b7160e01b600052601160045260246000fd5b8181029291811591840414171561144857565b61145061141e565b565b604051906080820182811067ffffffffffffffff82111761147f575b604052604282526060366020840137565b6114876102fd565b61146e565b50634e487b7160e01b600052603260045260246000fd5b6020908051156114b1570190565b6112b961148c565b6021908051600110156114b1570190565b9060209180518210156114dc57010190565b6114e461148c565b010190565b80156114f7575b6000190190565b6114ff61141e565b6114f0565b1561150b57565b606460405162461bcd60e51b815260206004820152602060248201527f537472696e67733a20686578206c656e67746820696e73756666696369656e746044820152fd5b604051906060820182811067ffffffffffffffff8211176115e0575b604052602a825260403660208401376030611585836114a3565b536078611591836114b9565b536029905b600182116115a957610435915015611504565b80600f6115da921660108110156110d9576f181899199a1a9b1b9c1cb0b131b232b360811b901a6110ca84866114ca565b90611596565b6115e86102fd565b61156b565b156115f457565b60405162461bcd60e51b815260206004820152602160248201527f5369676e657220616e64207369676e617475726520646f206e6f74206d6174636044820152600d60fb1b6064820152608490fd5b6001906000198114611653570190565b6112b961141e565b60209061167160149493828151948592016103dc565b01906001600160601b03199060601b1681520190565b3d156116b2573d906116988261035f565b916116a6604051938461033d565b82523d6000602084013e565b606090565b156116be57565b60405162461bcd60e51b815260206004820152601c60248201527f46756e6374696f6e2063616c6c206e6f74207375636365737366756c000000006044820152606490fd5b6001600160a01b03918216815291166020820152606060408201819052610435929101906103ff565b506040513d6000823e3d90fd5b1561174057565b60405162461bcd60e51b8152602060048201526011602482015270496e76616c6964207369676e617475726560781b6044820152606490fd5b9592946117d36117fa926020976117cb6074600099976040519384918d83019687523060601b604084015260548301526117bb815180928f86860191016103dc565b810103605481018452018261033d565b519020611835565b92604051948594859094939260ff6060936080840197845216602083015260408201520152565b838052039060015afa15611828575b6000516001600160a01b0390811691611823831515611739565b161490565b61183061172c565b611809565b60405160208101917f19457468657265756d205369676e6564204d6573736167653a0a3332000000008352603c820152603c81526060810181811067ffffffffffffffff82111761188a575b60405251902090565b6118926102fd565b611881565b1561189e57565b60405162461bcd60e51b815260206004820152602e60248201527f496e697469616c697a61626c653a20636f6e747261637420697320616c72656160448201526d191e481a5b9a5d1a585b1a5e995960921b6064820152608490fd5b60ca80546001600160a01b03199081166001600160a01b039384161790915560cb80549091169282169290921790915560cc9390935580831660009081527fddaeee8e61001dbcfaf4f92c6943552c392a86665d734d3c1905d7b3c23b1b1e60205260408120611978949060ff90541615611990575b5050506112bd565b6119806119f6565b6119886119f6565b6114506119f6565b8180526098602090815260408084206001600160a01b038616600090815292529020805460ff19166001179055806119c6611df5565b169216907f2f8788117e7eff1d82e926ec794901d17c78024a50270940304540a733656f0d8180a4388080611970565b60ff60005460081c1615611a0657565b60405162461bcd60e51b815260206004820152602b60248201527f496e697469616c697a61626c653a20636f6e7472616374206973206e6f74206960448201526a6e697469616c697a696e6760a81b6064820152608490fd5b15611a6657565b60405162461bcd60e51b815260206004820152600c60248201526b7a65726f206164647265737360a01b6044820152606490fd5b9081602091031261000e5751610435816103d1565b60ff16604d8111611ac1575b600a0a90565b611ac961141e565b611abb565b8115611ad8570490565b634e487b7160e01b600052601260045260246000fd5b15611af557565b60405162461bcd60e51b815260206004820152600e60248201526d125b9d985b1a5908105b5bdd5b9d60921b6044820152606490fd5b15611b3257565b60405162461bcd60e51b8152602060048201526016602482015275696e76616c696420646563696d616c20706c6163657360501b6044820152606490fd5b9081602091031261000e575190565b15611b8657565b60405162461bcd60e51b8152602060048201526014602482015273496e73756666696369656e742062616c616e636560601b6044820152606490fd5b60405163a9059cbb60e01b60208201526001600160a01b0392909216602483015260448083019390935291815261145091611bfe60648361033d565b611ce0565b6040516323b872dd60e01b60208201526001600160a01b0392831660248201529290911660448301526064808301939093529181526114509160a0820182811067ffffffffffffffff821117611c5c575b604052611ce0565b611c646102fd565b611c54565b9081602091031261000e5751801515810361000e5790565b15611c8857565b60405162461bcd60e51b815260206004820152602a60248201527f5361666545524332303a204552433230206f7065726174696f6e20646964206e6044820152691bdd081cdd58d8d9595960b21b6064820152608490fd5b6040516001600160a01b039190911691611cf982610314565b6020928383527f5361666545524332303a206c6f772d6c6576656c2063616c6c206661696c656484840152803b15611d705760008281928287611d4b9796519301915af1611d45611687565b90611db5565b80519081611d5857505050565b8261145093611d6b938301019101611c69565b611c81565b60405162461bcd60e51b815260048101859052601d60248201527f416464726573733a2063616c6c20746f206e6f6e2d636f6e74726163740000006044820152606490fd5b90919015611dc1575090565b815115611dd15750805190602001fd5b60405162461bcd60e51b8152602060048201529081906110939060248301906103ff565b333003611e3757611e053661035f565b611e12604051918261033d565b368152366000602083013760006020369290920191820152516001600160a01b031690565b339056fea2646970667358221220e063d01c100565130cb8b5142dee63faf03a866f4a30adc935f5d002158b4e0e64736f6c63430008110033",
  "linkReferences": {},
  "deployedLinkReferences": {}
}