{
  "_format": "hh-sol-artifact-1",
  "contractName": "UChildERC20",
  "sourceName": "contracts/USDCSixDecimal.sol",
  "abi": [
    {
      "inputs": [],
      "stateMutability": "nonpayable",
      "type": "constructor"
    },
    {
      "anonymous": false,
      "inputs": [
        {
          "indexed": true,
          "internalType": "address",
          "name": "owner",
          "type": "address"
        },
        {
          "indexed": true,
          "internalType": "address",
          "name": "spender",
          "type": "address"
        },
        {
          "indexed": false,
          "internalType": "uint256",
          "name": "value",
          "type": "uint256"
        }
      ],
      "name": "Approval",
      "type": "event"
    },
    {
      "anonymous": false,
      "inputs": [
        {
          "indexed": true,
          "internalType": "address",
          "name": "authorizer",
          "type": "address"
        },
        {
          "indexed": true,
          "internalType": "bytes32",
          "name": "nonce",
          "type": "bytes32"
        }
      ],
      "name": "AuthorizationCanceled",
      "type": "event"
    },
    {
      "anonymous": false,
      "inputs": [
        {
          "indexed": true,
          "internalType": "address",
          "name": "authorizer",
          "type": "address"
        },
        {
          "indexed": true,
          "internalType": "bytes32",
          "name": "nonce",
          "type": "bytes32"
        }
      ],
      "name": "AuthorizationUsed",
      "type": "event"
    },
    {
      "anonymous": false,
      "inputs": [
        {
          "indexed": false,
          "internalType": "address",
          "name": "userAddress",
          "type": "address"
        },
        {
          "indexed": false,
          "internalType": "address payable",
          "name": "relayerAddress",
          "type": "address"
        },
        {
          "indexed": false,
          "internalType": "bytes",
          "name": "functionSignature",
          "type": "bytes"
        }
      ],
      "name": "MetaTransactionExecuted",
      "type": "event"
    },
    {
      "anonymous": false,
      "inputs": [
        {
          "indexed": true,
          "internalType": "bytes32",
          "name": "role",
          "type": "bytes32"
        },
        {
          "indexed": true,
          "internalType": "bytes32",
          "name": "previousAdminRole",
          "type": "bytes32"
        },
        {
          "indexed": true,
          "internalType": "bytes32",
          "name": "newAdminRole",
          "type": "bytes32"
        }
      ],
      "name": "RoleAdminChanged",
      "type": "event"
    },
    {
      "anonymous": false,
      "inputs": [
        {
          "indexed": true,
          "internalType": "bytes32",
          "name": "role",
          "type": "bytes32"
        },
        {
          "indexed": true,
          "internalType": "address",
          "name": "account",
          "type": "address"
        },
        {
          "indexed": true,
          "internalType": "address",
          "name": "sender",
          "type": "address"
        }
      ],
      "name": "RoleGranted",
      "type": "event"
    },
    {
      "anonymous": false,
      "inputs": [
        {
          "indexed": true,
          "internalType": "bytes32",
          "name": "role",
          "type": "bytes32"
        },
        {
          "indexed": true,
          "internalType": "address",
          "name": "account",
          "type": "address"
        },
        {
          "indexed": true,
          "internalType": "address",
          "name": "sender",
          "type": "address"
        }
      ],
      "name": "RoleRevoked",
      "type": "event"
    },
    {
      "anonymous": false,
      "inputs": [
        {
          "indexed": true,
          "internalType": "address",
          "name": "from",
          "type": "address"
        },
        {
          "indexed": true,
          "internalType": "address",
          "name": "to",
          "type": "address"
        },
        {
          "indexed": false,
          "internalType": "uint256",
          "name": "value",
          "type": "uint256"
        }
      ],
      "name": "Transfer",
      "type": "event"
    },
    {
      "inputs": [],
      "name": "APPROVE_WITH_AUTHORIZATION_TYPEHASH",
      "outputs": [
        {
          "internalType": "bytes32",
          "name": "",
          "type": "bytes32"
        }
      ],
      "stateMutability": "view",
      "type": "function"
    },
    {
      "inputs": [],
      "name": "CANCEL_AUTHORIZATION_TYPEHASH",
      "outputs": [
        {
          "internalType": "bytes32",
          "name": "",
          "type": "bytes32"
        }
      ],
      "stateMutability": "view",
      "type": "function"
    },
    {
      "inputs": [],
      "name": "DECREASE_ALLOWANCE_WITH_AUTHORIZATION_TYPEHASH",
      "outputs": [
        {
          "internalType": "bytes32",
          "name": "",
          "type": "bytes32"
        }
      ],
      "stateMutability": "view",
      "type": "function"
    },
    {
      "inputs": [],
      "name": "DEFAULT_ADMIN_ROLE",
      "outputs": [
        {
          "internalType": "bytes32",
          "name": "",
          "type": "bytes32"
        }
      ],
      "stateMutability": "view",
      "type": "function"
    },
    {
      "inputs": [],
      "name": "DEPOSITOR_ROLE",
      "outputs": [
        {
          "internalType": "bytes32",
          "name": "",
          "type": "bytes32"
        }
      ],
      "stateMutability": "view",
      "type": "function"
    },
    {
      "inputs": [],
      "name": "DOMAIN_SEPARATOR",
      "outputs": [
        {
          "internalType": "bytes32",
          "name": "",
          "type": "bytes32"
        }
      ],
      "stateMutability": "view",
      "type": "function"
    },
    {
      "inputs": [],
      "name": "EIP712_VERSION",
      "outputs": [
        {
          "internalType": "string",
          "name": "",
          "type": "string"
        }
      ],
      "stateMutability": "view",
      "type": "function"
    },
    {
      "inputs": [],
      "name": "INCREASE_ALLOWANCE_WITH_AUTHORIZATION_TYPEHASH",
      "outputs": [
        {
          "internalType": "bytes32",
          "name": "",
          "type": "bytes32"
        }
      ],
      "stateMutability": "view",
      "type": "function"
    },
    {
      "inputs": [],
      "name": "META_TRANSACTION_TYPEHASH",
      "outputs": [
        {
          "internalType": "bytes32",
          "name": "",
          "type": "bytes32"
        }
      ],
      "stateMutability": "view",
      "type": "function"
    },
    {
      "inputs": [],
      "name": "PERMIT_TYPEHASH",
      "outputs": [
        {
          "internalType": "bytes32",
          "name": "",
          "type": "bytes32"
        }
      ],
      "stateMutability": "view",
      "type": "function"
    },
    {
      "inputs": [],
      "name": "TRANSFER_WITH_AUTHORIZATION_TYPEHASH",
      "outputs": [
        {
          "internalType": "bytes32",
          "name": "",
          "type": "bytes32"
        }
      ],
      "stateMutability": "view",
      "type": "function"
    },
    {
      "inputs": [],
      "name": "WITHDRAW_WITH_AUTHORIZATION_TYPEHASH",
      "outputs": [
        {
          "internalType": "bytes32",
          "name": "",
          "type": "bytes32"
        }
      ],
      "stateMutability": "view",
      "type": "function"
    },
    {
      "inputs": [
        {
          "internalType": "address",
          "name": "owner",
          "type": "address"
        },
        {
          "internalType": "address",
          "name": "spender",
          "type": "address"
        }
      ],
      "name": "allowance",
      "outputs": [
        {
          "internalType": "uint256",
          "name": "",
          "type": "uint256"
        }
      ],
      "stateMutability": "view",
      "type": "function"
    },
    {
      "inputs": [
        {
          "internalType": "address",
          "name": "spender",
          "type": "address"
        },
        {
          "internalType": "uint256",
          "name": "amount",
          "type": "uint256"
        }
      ],
      "name": "approve",
      "outputs": [
        {
          "internalType": "bool",
          "name": "",
          "type": "bool"
        }
      ],
      "stateMutability": "nonpayable",
      "type": "function"
    },
    {
      "inputs": [
        {
          "internalType": "address",
          "name": "owner",
          "type": "address"
        },
        {
          "internalType": "address",
          "name": "spender",
          "type": "address"
        },
        {
          "internalType": "uint256",
          "name": "value",
          "type": "uint256"
        },
        {
          "internalType": "uint256",
          "name": "validAfter",
          "type": "uint256"
        },
        {
          "internalType": "uint256",
          "name": "validBefore",
          "type": "uint256"
        },
        {
          "internalType": "bytes32",
          "name": "nonce",
          "type": "bytes32"
        },
        {
          "internalType": "uint8",
          "name": "v",
          "type": "uint8"
        },
        {
          "internalType": "bytes32",
          "name": "r",
          "type": "bytes32"
        },
        {
          "internalType": "bytes32",
          "name": "s",
          "type": "bytes32"
        }
      ],
      "name": "approveWithAuthorization",
      "outputs": [],
      "stateMutability": "nonpayable",
      "type": "function"
    },
    {
      "inputs": [
        {
          "internalType": "address",
          "name": "authorizer",
          "type": "address"
        },
        {
          "internalType": "bytes32",
          "name": "nonce",
          "type": "bytes32"
        }
      ],
      "name": "authorizationState",
      "outputs": [
        {
          "internalType": "enum GasAbstraction.AuthorizationState",
          "name": "",
          "type": "uint8"
        }
      ],
      "stateMutability": "view",
      "type": "function"
    },
    {
      "inputs": [
        {
          "internalType": "address",
          "name": "account",
          "type": "address"
        }
      ],
      "name": "balanceOf",
      "outputs": [
        {
          "internalType": "uint256",
          "name": "",
          "type": "uint256"
        }
      ],
      "stateMutability": "view",
      "type": "function"
    },
    {
      "inputs": [
        {
          "internalType": "address",
          "name": "authorizer",
          "type": "address"
        },
        {
          "internalType": "bytes32",
          "name": "nonce",
          "type": "bytes32"
        },
        {
          "internalType": "uint8",
          "name": "v",
          "type": "uint8"
        },
        {
          "internalType": "bytes32",
          "name": "r",
          "type": "bytes32"
        },
        {
          "internalType": "bytes32",
          "name": "s",
          "type": "bytes32"
        }
      ],
      "name": "cancelAuthorization",
      "outputs": [],
      "stateMutability": "nonpayable",
      "type": "function"
    },
    {
      "inputs": [],
      "name": "decimals",
      "outputs": [
        {
          "internalType": "uint8",
          "name": "",
          "type": "uint8"
        }
      ],
      "stateMutability": "view",
      "type": "function"
    },
    {
      "inputs": [
        {
          "internalType": "address",
          "name": "spender",
          "type": "address"
        },
        {
          "internalType": "uint256",
          "name": "subtractedValue",
          "type": "uint256"
        }
      ],
      "name": "decreaseAllowance",
      "outputs": [
        {
          "internalType": "bool",
          "name": "",
          "type": "bool"
        }
      ],
      "stateMutability": "nonpayable",
      "type": "function"
    },
    {
      "inputs": [
        {
          "internalType": "address",
          "name": "owner",
          "type": "address"
        },
        {
          "internalType": "address",
          "name": "spender",
          "type": "address"
        },
        {
          "internalType": "uint256",
          "name": "decrement",
          "type": "uint256"
        },
        {
          "internalType": "uint256",
          "name": "validAfter",
          "type": "uint256"
        },
        {
          "internalType": "uint256",
          "name": "validBefore",
          "type": "uint256"
        },
        {
          "internalType": "bytes32",
          "name": "nonce",
          "type": "bytes32"
        },
        {
          "internalType": "uint8",
          "name": "v",
          "type": "uint8"
        },
        {
          "internalType": "bytes32",
          "name": "r",
          "type": "bytes32"
        },
        {
          "internalType": "bytes32",
          "name": "s",
          "type": "bytes32"
        }
      ],
      "name": "decreaseAllowanceWithAuthorization",
      "outputs": [],
      "stateMutability": "nonpayable",
      "type": "function"
    },
    {
      "inputs": [
        {
          "internalType": "address",
          "name": "user",
          "type": "address"
        },
        {
          "internalType": "bytes",
          "name": "depositData",
          "type": "bytes"
        }
      ],
      "name": "deposit",
      "outputs": [],
      "stateMutability": "nonpayable",
      "type": "function"
    },
    {
      "inputs": [
        {
          "internalType": "address",
          "name": "userAddress",
          "type": "address"
        },
        {
          "internalType": "bytes",
          "name": "functionSignature",
          "type": "bytes"
        },
        {
          "internalType": "bytes32",
          "name": "sigR",
          "type": "bytes32"
        },
        {
          "internalType": "bytes32",
          "name": "sigS",
          "type": "bytes32"
        },
        {
          "internalType": "uint8",
          "name": "sigV",
          "type": "uint8"
        }
      ],
      "name": "executeMetaTransaction",
      "outputs": [
        {
          "internalType": "bytes",
          "name": "",
          "type": "bytes"
        }
      ],
      "stateMutability": "payable",
      "type": "function"
    },
    {
      "inputs": [
        {
          "internalType": "bytes32",
          "name": "role",
          "type": "bytes32"
        }
      ],
      "name": "getRoleAdmin",
      "outputs": [
        {
          "internalType": "bytes32",
          "name": "",
          "type": "bytes32"
        }
      ],
      "stateMutability": "view",
      "type": "function"
    },
    {
      "inputs": [
        {
          "internalType": "bytes32",
          "name": "role",
          "type": "bytes32"
        },
        {
          "internalType": "uint256",
          "name": "index",
          "type": "uint256"
        }
      ],
      "name": "getRoleMember",
      "outputs": [
        {
          "internalType": "address",
          "name": "",
          "type": "address"
        }
      ],
      "stateMutability": "view",
      "type": "function"
    },
    {
      "inputs": [
        {
          "internalType": "bytes32",
          "name": "role",
          "type": "bytes32"
        }
      ],
      "name": "getRoleMemberCount",
      "outputs": [
        {
          "internalType": "uint256",
          "name": "",
          "type": "uint256"
        }
      ],
      "stateMutability": "view",
      "type": "function"
    },
    {
      "inputs": [
        {
          "internalType": "bytes32",
          "name": "role",
          "type": "bytes32"
        },
        {
          "internalType": "address",
          "name": "account",
          "type": "address"
        }
      ],
      "name": "grantRole",
      "outputs": [],
      "stateMutability": "nonpayable",
      "type": "function"
    },
    {
      "inputs": [
        {
          "internalType": "bytes32",
          "name": "role",
          "type": "bytes32"
        },
        {
          "internalType": "address",
          "name": "account",
          "type": "address"
        }
      ],
      "name": "hasRole",
      "outputs": [
        {
          "internalType": "bool",
          "name": "",
          "type": "bool"
        }
      ],
      "stateMutability": "view",
      "type": "function"
    },
    {
      "inputs": [
        {
          "internalType": "address",
          "name": "spender",
          "type": "address"
        },
        {
          "internalType": "uint256",
          "name": "addedValue",
          "type": "uint256"
        }
      ],
      "name": "increaseAllowance",
      "outputs": [
        {
          "internalType": "bool",
          "name": "",
          "type": "bool"
        }
      ],
      "stateMutability": "nonpayable",
      "type": "function"
    },
    {
      "inputs": [
        {
          "internalType": "address",
          "name": "owner",
          "type": "address"
        },
        {
          "internalType": "address",
          "name": "spender",
          "type": "address"
        },
        {
          "internalType": "uint256",
          "name": "increment",
          "type": "uint256"
        },
        {
          "internalType": "uint256",
          "name": "validAfter",
          "type": "uint256"
        },
        {
          "internalType": "uint256",
          "name": "validBefore",
          "type": "uint256"
        },
        {
          "internalType": "bytes32",
          "name": "nonce",
          "type": "bytes32"
        },
        {
          "internalType": "uint8",
          "name": "v",
          "type": "uint8"
        },
        {
          "internalType": "bytes32",
          "name": "r",
          "type": "bytes32"
        },
        {
          "internalType": "bytes32",
          "name": "s",
          "type": "bytes32"
        }
      ],
      "name": "increaseAllowanceWithAuthorization",
      "outputs": [],
      "stateMutability": "nonpayable",
      "type": "function"
    },
    {
      "inputs": [
        {
          "internalType": "string",
          "name": "newName",
          "type": "string"
        },
        {
          "internalType": "string",
          "name": "newSymbol",
          "type": "string"
        },
        {
          "internalType": "uint8",
          "name": "newDecimals",
          "type": "uint8"
        },
        {
          "internalType": "address",
          "name": "childChainManager",
          "type": "address"
        }
      ],
      "name": "initialize",
      "outputs": [],
      "stateMutability": "nonpayable",
      "type": "function"
    },
    {
      "inputs": [],
      "name": "initialized",
      "outputs": [
        {
          "internalType": "bool",
          "name": "",
          "type": "bool"
        }
      ],
      "stateMutability": "view",
      "type": "function"
    },
    {
      "inputs": [],
      "name": "name",
      "outputs": [
        {
          "internalType": "string",
          "name": "",
          "type": "string"
        }
      ],
      "stateMutability": "view",
      "type": "function"
    },
    {
      "inputs": [
        {
          "internalType": "address",
          "name": "owner",
          "type": "address"
        }
      ],
      "name": "nonces",
      "outputs": [
        {
          "internalType": "uint256",
          "name": "",
          "type": "uint256"
        }
      ],
      "stateMutability": "view",
      "type": "function"
    },
    {
      "inputs": [
        {
          "internalType": "address",
          "name": "owner",
          "type": "address"
        },
        {
          "internalType": "address",
          "name": "spender",
          "type": "address"
        },
        {
          "internalType": "uint256",
          "name": "value",
          "type": "uint256"
        },
        {
          "internalType": "uint256",
          "name": "deadline",
          "type": "uint256"
        },
        {
          "internalType": "uint8",
          "name": "v",
          "type": "uint8"
        },
        {
          "internalType": "bytes32",
          "name": "r",
          "type": "bytes32"
        },
        {
          "internalType": "bytes32",
          "name": "s",
          "type": "bytes32"
        }
      ],
      "name": "permit",
      "outputs": [],
      "stateMutability": "nonpayable",
      "type": "function"
    },
    {
      "inputs": [
        {
          "internalType": "bytes32",
          "name": "role",
          "type": "bytes32"
        },
        {
          "internalType": "address",
          "name": "account",
          "type": "address"
        }
      ],
      "name": "renounceRole",
      "outputs": [],
      "stateMutability": "nonpayable",
      "type": "function"
    },
    {
      "inputs": [
        {
          "internalType": "bytes32",
          "name": "role",
          "type": "bytes32"
        },
        {
          "internalType": "address",
          "name": "account",
          "type": "address"
        }
      ],
      "name": "revokeRole",
      "outputs": [],
      "stateMutability": "nonpayable",
      "type": "function"
    },
    {
      "inputs": [],
      "name": "symbol",
      "outputs": [
        {
          "internalType": "string",
          "name": "",
          "type": "string"
        }
      ],
      "stateMutability": "view",
      "type": "function"
    },
    {
      "inputs": [],
      "name": "totalSupply",
      "outputs": [
        {
          "internalType": "uint256",
          "name": "",
          "type": "uint256"
        }
      ],
      "stateMutability": "view",
      "type": "function"
    },
    {
      "inputs": [
        {
          "internalType": "address",
          "name": "recipient",
          "type": "address"
        },
        {
          "internalType": "uint256",
          "name": "amount",
          "type": "uint256"
        }
      ],
      "name": "transfer",
      "outputs": [
        {
          "internalType": "bool",
          "name": "",
          "type": "bool"
        }
      ],
      "stateMutability": "nonpayable",
      "type": "function"
    },
    {
      "inputs": [
        {
          "internalType": "address",
          "name": "sender",
          "type": "address"
        },
        {
          "internalType": "address",
          "name": "recipient",
          "type": "address"
        },
        {
          "internalType": "uint256",
          "name": "amount",
          "type": "uint256"
        }
      ],
      "name": "transferFrom",
      "outputs": [
        {
          "internalType": "bool",
          "name": "",
          "type": "bool"
        }
      ],
      "stateMutability": "nonpayable",
      "type": "function"
    },
    {
      "inputs": [
        {
          "internalType": "address",
          "name": "from",
          "type": "address"
        },
        {
          "internalType": "address",
          "name": "to",
          "type": "address"
        },
        {
          "internalType": "uint256",
          "name": "value",
          "type": "uint256"
        },
        {
          "internalType": "uint256",
          "name": "validAfter",
          "type": "uint256"
        },
        {
          "internalType": "uint256",
          "name": "validBefore",
          "type": "uint256"
        },
        {
          "internalType": "bytes32",
          "name": "nonce",
          "type": "bytes32"
        },
        {
          "internalType": "uint8",
          "name": "v",
          "type": "uint8"
        },
        {
          "internalType": "bytes32",
          "name": "r",
          "type": "bytes32"
        },
        {
          "internalType": "bytes32",
          "name": "s",
          "type": "bytes32"
        }
      ],
      "name": "transferWithAuthorization",
      "outputs": [],
      "stateMutability": "nonpayable",
      "type": "function"
    },
    {
      "inputs": [
        {
          "internalType": "string",
          "name": "newName",
          "type": "string"
        },
        {
          "internalType": "string",
          "name": "newSymbol",
          "type": "string"
        }
      ],
      "name": "updateMetadata",
      "outputs": [],
      "stateMutability": "nonpayable",
      "type": "function"
    },
    {
      "inputs": [
        {
          "internalType": "uint256",
          "name": "amount",
          "type": "uint256"
        }
      ],
      "name": "withdraw",
      "outputs": [],
      "stateMutability": "nonpayable",
      "type": "function"
    },
    {
      "inputs": [
        {
          "internalType": "address",
          "name": "owner",
          "type": "address"
        },
        {
          "internalType": "uint256",
          "name": "value",
          "type": "uint256"
        },
        {
          "internalType": "uint256",
          "name": "validAfter",
          "type": "uint256"
        },
        {
          "internalType": "uint256",
          "name": "validBefore",
          "type": "uint256"
        },
        {
          "internalType": "bytes32",
          "name": "nonce",
          "type": "bytes32"
        },
        {
          "internalType": "uint8",
          "name": "v",
          "type": "uint8"
        },
        {
          "internalType": "bytes32",
          "name": "r",
          "type": "bytes32"
        },
        {
          "internalType": "bytes32",
          "name": "s",
          "type": "bytes32"
        }
      ],
      "name": "withdrawWithAuthorization",
      "outputs": [],
      "stateMutability": "nonpayable",
      "type": "function"
    }
  ],
  "bytecode": "0x60806040526008805460ff191690553480156200001b57600080fd5b50604080516020808201808452600080845284519283019094529281528151919290916200004c9160039162000078565b5080516200006290600490602084019062000078565b50506005805460ff191660121790555062000114565b828054600181600116156101000203166002900490600052602060002090601f016020900481019282601f10620000bb57805160ff1916838001178555620000eb565b82800160010185558215620000eb579182015b82811115620000eb578251825591602001919060010190620000ce565b50620000f9929150620000fd565b5090565b5b80821115620000f95760008155600101620000fe565b6134c180620001246000396000f3fe6080604052600436106102725760003560e01c80639010d07c1161014f578063ca15c873116100c1578063de7ea79d1161007a578063de7ea79d14610bd8578063e1560fd314610cb5578063e3ee160e14610d21578063e94a010214610d8d578063eccec5a814610de7578063fa2c322d14610dfc57610272565b8063ca15c87314610a3c578063cf2c52cb14610a66578063d505accf14610af1578063d547741f14610b4f578063d916948714610b88578063dd62ed3e14610b9d57610272565b8063a3b0b5a311610113578063a3b0b5a3146108c8578063a457c2d7146108dd578063a9059cbb14610916578063b00860951461094f578063c237108f146109bb578063c7b84f8d14610a2757610272565b80639010d07c1461080457806391d148541461085057806395d89b4114610889578063a0cc6a681461089e578063a217fddf146108b357610272565b806330adf81f116101e85780634b71f5c3116101ac5780634b71f5c31461060f57806356ce0e6c146106245780635a049a70146106ef57806370a082311461073d5780637b766e5f146107705780637ecebe00146107d157610272565b806330adf81f14610548578063313ce5671461055d5780633644e5151461058857806336568abe1461059d57806339509351146105d657610272565b806318160ddd1161023a57806318160ddd1461044c5780632004d2911461046157806323b872dd14610476578063248a9ca3146104b95780632e1a7d4d146104e35780632f2ff15d1461050f57610272565b806306fdde0314610277578063095ea7b3146103015780630c53c51c1461034e57806310c8b40414610410578063158ef93e14610437575b600080fd5b34801561028357600080fd5b5061028c610e11565b6040805160208082528351818301528351919283929083019185019080838360005b838110156102c65781810151838201526020016102ae565b50505050905090810190601f1680156102f35780820380516001836020036101000a031916815260200191505b509250505060405180910390f35b34801561030d57600080fd5b5061033a6004803603604081101561032457600080fd5b506001600160a01b038135169060200135610ea8565b604080519115158252519081900360200190f35b61028c600480360360a081101561036457600080fd5b6001600160a01b038235169190810190604081016020820135600160201b81111561038e57600080fd5b8201836020820111156103a057600080fd5b803590602001918460018302840111600160201b831117156103c157600080fd5b91908080601f016020809104026020016040519081016040528093929190818152602001838380828437600092019190915250929550508235935050506020810135906040013560ff16610ec6565b34801561041c57600080fd5b5061042561118e565b60408051918252519081900360200190f35b34801561044357600080fd5b5061033a6111b2565b34801561045857600080fd5b506104256111bb565b34801561046d57600080fd5b506104256111c1565b34801561048257600080fd5b5061033a6004803603606081101561049957600080fd5b506001600160a01b038135811691602081013590911690604001356111e5565b3480156104c557600080fd5b50610425600480360360208110156104dc57600080fd5b50356111fc565b3480156104ef57600080fd5b5061050d6004803603602081101561050657600080fd5b5035611211565b005b34801561051b57600080fd5b5061050d6004803603604081101561053257600080fd5b50803590602001356001600160a01b0316611225565b34801561055457600080fd5b50610425611291565b34801561056957600080fd5b506105726112b5565b6040805160ff9092168252519081900360200190f35b34801561059457600080fd5b506104256112be565b3480156105a957600080fd5b5061050d600480360360408110156105c057600080fd5b50803590602001356001600160a01b03166112c4565b3480156105e257600080fd5b5061033a600480360360408110156105f957600080fd5b506001600160a01b038135169060200135611325565b34801561061b57600080fd5b50610425611339565b34801561063057600080fd5b5061050d6004803603604081101561064757600080fd5b810190602081018135600160201b81111561066157600080fd5b82018360208201111561067357600080fd5b803590602001918460018302840111600160201b8311171561069457600080fd5b919390929091602081019035600160201b8111156106b157600080fd5b8201836020820111156106c357600080fd5b803590602001918460018302840111600160201b831117156106e457600080fd5b50909250905061135d565b3480156106fb57600080fd5b5061050d600480360360a081101561071257600080fd5b506001600160a01b038135169060208101359060ff60408201351690606081013590608001356114e9565b34801561074957600080fd5b506104256004803603602081101561076057600080fd5b50356001600160a01b03166114f6565b34801561077c57600080fd5b5061050d600480360361010081101561079457600080fd5b506001600160a01b038135169060208101359060408101359060608101359060808101359060ff60a0820135169060c08101359060e00135611511565b3480156107dd57600080fd5b50610425600480360360208110156107f457600080fd5b50356001600160a01b031661152b565b34801561081057600080fd5b506108346004803603604081101561082757600080fd5b5080359060200135611546565b604080516001600160a01b039092168252519081900360200190f35b34801561085c57600080fd5b5061033a6004803603604081101561087357600080fd5b50803590602001356001600160a01b0316611565565b34801561089557600080fd5b5061028c61157d565b3480156108aa57600080fd5b506104256115de565b3480156108bf57600080fd5b50610425611602565b3480156108d457600080fd5b50610425611607565b3480156108e957600080fd5b5061033a6004803603604081101561090057600080fd5b506001600160a01b03813516906020013561162b565b34801561092257600080fd5b5061033a6004803603604081101561093957600080fd5b506001600160a01b03813516906020013561163f565b34801561095b57600080fd5b5061050d600480360361012081101561097357600080fd5b506001600160a01b03813581169160208101359091169060408101359060608101359060808101359060a08101359060ff60c0820135169060e0810135906101000135611653565b3480156109c757600080fd5b5061050d60048036036101208110156109df57600080fd5b506001600160a01b03813581169160208101359091169060408101359060608101359060808101359060a08101359060ff60c0820135169060e081013590610100013561166f565b348015610a3357600080fd5b50610425611680565b348015610a4857600080fd5b5061042560048036036020811015610a5f57600080fd5b50356116a4565b348015610a7257600080fd5b5061050d60048036036040811015610a8957600080fd5b6001600160a01b038235169190810190604081016020820135600160201b811115610ab357600080fd5b820183602082011115610ac557600080fd5b803590602001918460018302840111600160201b83111715610ae657600080fd5b5090925090506116bb565b348015610afd57600080fd5b5061050d600480360360e0811015610b1457600080fd5b506001600160a01b03813581169160208101359091169060408101359060608101359060ff6080820135169060a08101359060c0013561176f565b348015610b5b57600080fd5b5061050d60048036036040811015610b7257600080fd5b50803590602001356001600160a01b0316611787565b348015610b9457600080fd5b506104256117e0565b348015610ba957600080fd5b5061042560048036036040811015610bc057600080fd5b506001600160a01b0381358116916020013516611804565b348015610be457600080fd5b5061050d60048036036080811015610bfb57600080fd5b810190602081018135600160201b811115610c1557600080fd5b820183602082011115610c2757600080fd5b803590602001918460018302840111600160201b83111715610c4857600080fd5b919390929091602081019035600160201b811115610c6557600080fd5b820183602082011115610c7757600080fd5b803590602001918460018302840111600160201b83111715610c9857600080fd5b9193509150803560ff1690602001356001600160a01b031661182f565b348015610cc157600080fd5b5061050d6004803603610120811015610cd957600080fd5b506001600160a01b03813581169160208101359091169060408101359060608101359060808101359060a08101359060ff60c0820135169060e08101359061010001356119b0565b348015610d2d57600080fd5b5061050d6004803603610120811015610d4557600080fd5b506001600160a01b03813581169160208101359091169060408101359060608101359060808101359060a08101359060ff60c0820135169060e08101359061010001356119c1565b348015610d9957600080fd5b50610dc660048036036040811015610db057600080fd5b506001600160a01b0381351690602001356119d2565b60405180826002811115610dd657fe5b815260200191505060405180910390f35b348015610df357600080fd5b5061028c6119fd565b348015610e0857600080fd5b50610425611a1a565b60038054604080516020601f6002600019610100600188161502019095169490940493840181900481028201810190925282815260609390929091830182828015610e9d5780601f10610e7257610100808354040283529160200191610e9d565b820191906000526020600020905b815481529060010190602001808311610e8057829003601f168201915b505050505090505b90565b6000610ebc610eb5611a3e565b8484611a4d565b5060015b92915050565b6060610ed06130a0565b50604080516060810182526001600160a01b0388166000818152600a6020908152908490208054600181019091558352820152908101869052610f168782878787611b39565b610f515760405162461bcd60e51b81526004018080602001828103825260218152602001806133596021913960400191505060405180910390fd5b7f5845892132946850460bff5a0083f71031bc5bf9aadcd40f1de79423eac9b10b87338860405180846001600160a01b03168152602001836001600160a01b0316815260200180602001828103825283818151815260200191508051906020019080838360005b83811015610fd0578181015183820152602001610fb8565b50505050905090810190601f168015610ffd5780820380516001836020036101000a031916815260200191505b5094505050505060405180910390a160006060306001600160a01b0316888a6040516020018083805190602001908083835b6020831061104e5780518252601f19909201916020918201910161102f565b6001836020036101000a038019825116818451168082178552505050505050905001826001600160a01b031660601b8152601401925050506040516020818303038152906040526040518082805190602001908083835b602083106110c45780518252601f1990920191602091820191016110a5565b6001836020036101000a0380198251168184511680821785525050505050509050019150506000604051808303816000865af19150503d8060008114611126576040519150601f19603f3d011682016040523d82523d6000602084013e61112b565b606091505b509150915081611182576040805162461bcd60e51b815260206004820152601c60248201527f46756e6374696f6e2063616c6c206e6f74207375636365737366756c00000000604482015290519081900360640190fd5b98975050505050505050565b7f808c10407a796f3ef2c7ea38c0638ea9d2b8a1c63e3ca9e1f56ce84ae59df73c81565b60085460ff1690565b60025490565b7f6c8f8f5f82f0c140edd12e80d10ff715a36d6e5f73e406394862b5f1eb44c4f981565b60006111f2848484611c29565b5060019392505050565b60009081526006602052604090206002015490565b61122261121c611a3e565b82611ca9565b50565b60008281526006602052604090206002015461124890611243611a3e565b611565565b6112835760405162461bcd60e51b815260040180806020018281038252602f8152602001806131a3602f913960400191505060405180910390fd5b61128d8282611da5565b5050565b7f6e71edae12b1b97f4d1f60370fef10105fa2faae0126114a169c64845d6126c981565b60055460ff1690565b60095481565b6112cc611a3e565b6001600160a01b0316816001600160a01b03161461131b5760405162461bcd60e51b815260040180806020018281038252602f81526020018061345d602f913960400191505060405180910390fd5b61128d8282611e0e565b6000610ebc611332611a3e565b8484611e77565b7fb70559e94cbda91958ebec07f9b65b3b490097c8d25c8dacd71105df1015b6d881565b600061136b81611243611a3e565b60079061140b5760405162461bcd60e51b81526020600482019081528254600260001961010060018416150201909116046024830181905290918291604490910190849080156113fc5780601f106113d1576101008083540402835291602001916113fc565b820191906000526020600020905b8154815290600101906020018083116113df57829003601f168201915b50509250505060405180910390fd5b5061144b85858080601f016020809104026020016040519081016040528093929190818152602001838380828437600092019190915250611eaf92505050565b61148a83838080601f016020809104026020016040519081016040528093929190818152602001838380828437600092019190915250611ec292505050565b6114e285858080601f016020809104026020016040519081016040528093929190818152602001838380828437600092019190915250506040805180820190915260018152603160f81b60208201529150611ed59050565b5050505050565b6114e28585858585611ee6565b6001600160a01b031660009081526020819052604090205490565b6115218888888888888888611ffa565b5050505050505050565b6001600160a01b03166000908152600a602052604090205490565b600082815260066020526040812061155e90836120db565b9392505050565b600082815260066020526040812061155e90836120e7565b60048054604080516020601f6002600019610100600188161502019095169490940493840181900481028201810190925282815260609390929091830182828015610e9d5780601f10610e7257610100808354040283529160200191610e9d565b7f7c7c6cdb67a18743f49ec6fa9b35f50d52ed05cbed4cc592e13b44501c1a226781565b600081565b7f8f4f2da22e8ac8f11e15f9fc141cddbb5deea8800186560abb6e68c5496619a981565b6000610ebc611638611a3e565b84846120fc565b6000610ebc61164c611a3e565b848461214b565b6116648989898989898989896122a6565b505050505050505050565b61166489898989898989898961239e565b7f424222bb050a1f7f14017232a5671f2680a2d3420f504bd565cf03035c53198a81565b6000818152600660205260408120610ec09061248a565b7f8f4f2da22e8ac8f11e15f9fc141cddbb5deea8800186560abb6e68c5496619a96116e881611243611a3e565b60079061174e5760405162461bcd60e51b81526020600482019081528254600260001961010060018416150201909116046024830181905290918291604490910190849080156113fc5780601f106113d1576101008083540402835291602001916113fc565b5060008383602081101561176157600080fd5b503590506114e28582612495565b61177e87878787878787612585565b50505050505050565b6000828152600660205260409020600201546117a590611243611a3e565b61131b5760405162461bcd60e51b81526004018080602001828103825260308152602001806132bb6030913960400191505060405180910390fd5b7f158b0a9edf7a828aad02f63cd515c68ef2f50ba807396f6d12842833a159742981565b6001600160a01b03918216600090815260016020908152604080832093909416825291909152205490565b60085460ff161561183f57600080fd5b61187e86868080601f016020809104026020016040519081016040528093929190818152602001838380828437600092019190915250611eaf92505050565b6118bd84848080601f016020809104026020016040519081016040528093929190818152602001838380828437600092019190915250611ec292505050565b6118c68261272b565b611907848460405160200180806410da1a5b1960da1b8152506005018383808284378083019250505092505050604051602081830303815290604052612741565b6119196000611914611a3e565b611283565b6119437f8f4f2da22e8ac8f11e15f9fc141cddbb5deea8800186560abb6e68c5496619a982611283565b61199b86868080601f016020809104026020016040519081016040528093929190818152602001838380828437600092019190915250506040805180820190915260018152603160f81b60208201529150611ed59050565b50506008805460ff1916600117905550505050565b6116648989898989898989896127df565b6116648989898989898989896128cb565b6001600160a01b03919091166000908152600b60209081526040808320938352929052205460ff1690565b604051806040016040528060018152602001603160f81b81525081565b7f23d10def3caacba2e4042e0c75d44a42d2558aabcf5ce951d0642a8032e1e65381565b6000611a486129b7565b905090565b6001600160a01b038316611a925760405162461bcd60e51b81526004018080602001828103825260248152602001806133ee6024913960400191505060405180910390fd5b6001600160a01b038216611ad75760405162461bcd60e51b815260040180806020018281038252602281526020018061321a6022913960400191505060405180910390fd5b6001600160a01b03808416600081815260016020908152604080832094871680845294825291829020859055815185815291517f8c5be1e5ebec7d5bd14f71427d1e84f3dd0314c0f7b2291e5b200ac8c7c3b9259281900390910190a3505050565b60006001600160a01b038616611b805760405162461bcd60e51b81526004018080602001828103825260258152602001806132eb6025913960400191505060405180910390fd5b60607f23d10def3caacba2e4042e0c75d44a42d2558aabcf5ce951d0642a8032e1e65360001b8660000151876020015188604001518051906020012060405160200180858152602001848152602001836001600160a01b031681526020018281526020019450505050506040516020818303038152906040529050866001600160a01b0316611c1460095485888886612a14565b6001600160a01b031614979650505050505050565b611c3483838361214b565b611ca483611c40611a3e565b611c9f84604051806060016040528060288152602001613331602891396001600160a01b038916600090815260016020526040812090611c7e611a3e565b6001600160a01b031681526020810191909152604001600020549190612a6b565b611a4d565b505050565b6001600160a01b038216611cee5760405162461bcd60e51b815260040180806020018281038252602181526020018061337a6021913960400191505060405180910390fd5b611cfa82600083611ca4565b611d37816040518060600160405280602281526020016131d2602291396001600160a01b0385166000908152602081905260409020549190612a6b565b6001600160a01b038316600090815260208190526040902055600254611d5d9082612b02565b6002556040805182815290516000916001600160a01b038516917fddf252ad1be2c89b69c2b068fc378daa952ba7f163c4a11628f55a4df523b3ef9181900360200190a35050565b6000828152600660205260409020611dbd9082612b44565b1561128d57611dca611a3e565b6001600160a01b0316816001600160a01b0316837f2f8788117e7eff1d82e926ec794901d17c78024a50270940304540a733656f0d60405160405180910390a45050565b6000828152600660205260409020611e269082612b59565b1561128d57611e33611a3e565b6001600160a01b0316816001600160a01b0316837ff6391f5c32d9c69d2a47ea670b442974b53935d1edc7fd64eb21e047a839171b60405160405180910390a45050565b6001600160a01b03808416600090815260016020908152604080832093861683529290522054611ca49084908490611c9f9085612b6e565b805161128d9060039060208401906130ca565b805161128d9060049060208401906130ca565b611edf8282612bc8565b6009555050565b611ef08585612c3a565b604080517f158b0a9edf7a828aad02f63cd515c68ef2f50ba807396f6d12842833a159742960208201526001600160a01b0387168183018190526060828101889052835180840390910181526080909201909252600954909190611f579086868686612a14565b6001600160a01b031614611f9c5760405162461bcd60e51b81526004018080602001828103825260218152602001806133106021913960400191505060405180910390fd5b6001600160a01b0386166000818152600b60209081526040808320898452909152808220805460ff19166002179055518792917f1cdd46ff242716cdaa72d159d339a485b3438398348d68f09d7c8c0a59353d8191a3505050505050565b61200688858888612ca8565b604080517f6c8f8f5f82f0c140edd12e80d10ff715a36d6e5f73e406394862b5f1eb44c4f960208201526001600160a01b038a16818301819052606082018a90526080820189905260a0820188905260c08083018890528351808403909101815260e09092019092526009549091906120829086868686612a14565b6001600160a01b0316146120c75760405162461bcd60e51b81526004018080602001828103825260218152602001806133106021913960400191505060405180910390fd5b6120d18986612d34565b6116648989611ca9565b600061155e8383612d8e565b600061155e836001600160a01b038416612df2565b611ca48383611c9f84604051806060016040528060258152602001613438602591396001600160a01b03808a166000908152600160209081526040808320938c16835292905220549190612a6b565b6001600160a01b0383166121905760405162461bcd60e51b815260040180806020018281038252602581526020018061339b6025913960400191505060405180910390fd5b6001600160a01b0382166121d55760405162461bcd60e51b81526004018080602001828103825260238152602001806131806023913960400191505060405180910390fd5b6121e0838383611ca4565b61221d8160405180606001604052806026815260200161326d602691396001600160a01b0386166000908152602081905260409020549190612a6b565b6001600160a01b03808516600090815260208190526040808220939093559084168152205461224c9082612b6e565b6001600160a01b038084166000818152602081815260409182902094909455805185815290519193928716927fddf252ad1be2c89b69c2b068fc378daa952ba7f163c4a11628f55a4df523b3ef92918290030190a3505050565b6122b289858888612ca8565b604080517fb70559e94cbda91958ebec07f9b65b3b490097c8d25c8dacd71105df1015b6d860208201526001600160a01b03808c16828401819052908b166060830152608082018a905260a0820189905260c0820188905260e0808301889052835180840390910181526101009092019092526009549091906123389086868686612a14565b6001600160a01b03161461237d5760405162461bcd60e51b81526004018080602001828103825260218152602001806133106021913960400191505060405180910390fd5b6123878a86612d34565b6123928a8a8a6120fc565b50505050505050505050565b6123aa89858888612ca8565b604080517f424222bb050a1f7f14017232a5671f2680a2d3420f504bd565cf03035c53198a60208201526001600160a01b03808c16828401819052908b166060830152608082018a905260a0820189905260c0820188905260e0808301889052835180840390910181526101009092019092526009549091906124309086868686612a14565b6001600160a01b0316146124755760405162461bcd60e51b81526004018080602001828103825260218152602001806133106021913960400191505060405180910390fd5b61247f8a86612d34565b6123928a8a8a611e77565b6000610ec082612e0a565b6001600160a01b0382166124f0576040805162461bcd60e51b815260206004820152601f60248201527f45524332303a206d696e7420746f20746865207a65726f206164647265737300604482015290519081900360640190fd5b6124fc60008383611ca4565b6002546125099082612b6e565b6002556001600160a01b03821660009081526020819052604090205461252f9082612b6e565b6001600160a01b0383166000818152602081815260408083209490945583518581529351929391927fddf252ad1be2c89b69c2b068fc378daa952ba7f163c4a11628f55a4df523b3ef9281900390910190a35050565b333014156125da576040805162461bcd60e51b815260206004820152601760248201527f43616c6c6572206973207468697320636f6e7472616374000000000000000000604482015290519081900360640190fd5b4284101561262f576040805162461bcd60e51b815260206004820152601960248201527f5065726d69743a207065726d6974206973206578706972656400000000000000604482015290519081900360640190fd5b6001600160a01b038088166000818152600a602090815260409182902080546001810190915582517f6e71edae12b1b97f4d1f60370fef10105fa2faae0126114a169c64845d6126c992810192909252818301849052938a1660608201526080810189905260a081019390935260c08084018890528151808503909101815260e090930190526009546126c59086868686612a14565b6001600160a01b031614612720576040805162461bcd60e51b815260206004820152601960248201527f5065726d69743a20696e76616c6964207369676e617475726500000000000000604482015290519081900360640190fd5b611521888888611a4d565b6005805460ff191660ff92909216919091179055565b806040516020018082805190602001908083835b602083106127745780518252601f199092019160209182019101612755565b51815160209384036101000a60001901801990921691161790527f3a20494e53554646494349454e545f5045524d495353494f4e530000000000009190930190815260408051808303600519018152601a9092019052805161128d95506007945092019190506130ca565b6127eb89858888612ca8565b604080517f808c10407a796f3ef2c7ea38c0638ea9d2b8a1c63e3ca9e1f56ce84ae59df73c60208201526001600160a01b03808c16828401819052908b166060830152608082018a905260a0820189905260c0820188905260e0808301889052835180840390910181526101009092019092526009549091906128719086868686612a14565b6001600160a01b0316146128b65760405162461bcd60e51b81526004018080602001828103825260218152602001806133106021913960400191505060405180910390fd5b6128c08a86612d34565b6123928a8a8a611a4d565b6128d789858888612ca8565b604080517f7c7c6cdb67a18743f49ec6fa9b35f50d52ed05cbed4cc592e13b44501c1a226760208201526001600160a01b03808c16828401819052908b166060830152608082018a905260a0820189905260c0820188905260e08083018890528351808403909101815261010090920190925260095490919061295d9086868686612a14565b6001600160a01b0316146129a25760405162461bcd60e51b81526004018080602001828103825260218152602001806133106021913960400191505060405180910390fd5b6129ac8a86612d34565b6123928a8a8a61214b565b600033301415612a0f5760606000368080601f0160208091040260200160405190810160405280939291908181526020018383808284376000920191909152505050503601516001600160a01b03169150610ea59050565b503390565b80516020808301919091206040805161190160f01b81850152602281018990526042808201939093528151808203909301835260620190528051910120600090612a6081878787612e0e565b979650505050505050565b60008184841115612afa5760405162461bcd60e51b81526004018080602001828103825283818151815260200191508051906020019080838360005b83811015612abf578181015183820152602001612aa7565b50505050905090810190601f168015612aec5780820380516001836020036101000a031916815260200191505b509250505060405180910390fd5b505050900390565b600061155e83836040518060400160405280601e81526020017f536166654d6174683a207375627472616374696f6e206f766572666c6f770000815250612a6b565b600061155e836001600160a01b038416612f90565b600061155e836001600160a01b038416612fda565b60008282018381101561155e576040805162461bcd60e51b815260206004820152601b60248201527f536166654d6174683a206164646974696f6e206f766572666c6f770000000000604482015290519081900360640190fd5b8151602092830120815191830191909120604080517f36c25de3e541d5d970f66e4210d728721220fff5c077cc6cd008b3a0c62adab7818601528082019390935260608301919091523060808301524660a0808401919091528151808403909101815260c09092019052805191012090565b6001600160a01b0382166000908152600b6020908152604080832084845290915281205460ff166002811115612c6c57fe5b1461128d5760405162461bcd60e51b815260040180806020018281038252603181526020018061323c6031913960400191505060405180910390fd5b814211612ce65760405162461bcd60e51b815260040180806020018281038252602e8152602001806133c0602e913960400191505060405180910390fd5b804210612d245760405162461bcd60e51b81526004018080602001828103825260288152602001806132936028913960400191505060405180910390fd5b612d2e8484612c3a565b50505050565b6001600160a01b0382166000818152600b60209081526040808320858452909152808220805460ff19166001179055518392917f98de503528ee59b575ef0c0a2576a82497bfc029a5685b209e9ec333479b10a591a35050565b81546000908210612dd05760405162461bcd60e51b815260040180806020018281038252602281526020018061315e6022913960400191505060405180910390fd5b826000018281548110612ddf57fe5b9060005260206000200154905092915050565b60009081526001919091016020526040902054151590565b5490565b60007f7fffffffffffffffffffffffffffffff5d576e7357a4501ddfe92f46681b20a0821115612e6f5760405162461bcd60e51b81526004018080602001828103825260268152602001806134126026913960400191505060405180910390fd5b8360ff16601b14158015612e8757508360ff16601c14155b15612ec35760405162461bcd60e51b81526004018080602001828103825260268152602001806131f46026913960400191505060405180910390fd5b600060018686868660405160008152602001604052604051808581526020018460ff1681526020018381526020018281526020019450505050506020604051602081039080840390855afa158015612f1f573d6000803e3d6000fd5b5050604051601f1901519150506001600160a01b038116612f87576040805162461bcd60e51b815260206004820152601c60248201527f45435265636f7665723a20696e76616c6964207369676e617475726500000000604482015290519081900360640190fd5b95945050505050565b6000612f9c8383612df2565b612fd257508154600181810184556000848152602080822090930184905584548482528286019093526040902091909155610ec0565b506000610ec0565b60008181526001830160205260408120548015613096578354600019808301919081019060009087908390811061300d57fe5b906000526020600020015490508087600001848154811061302a57fe5b60009182526020808320909101929092558281526001898101909252604090209084019055865487908061305a57fe5b60019003818190600052602060002001600090559055866001016000878152602001908152602001600020600090556001945050505050610ec0565b6000915050610ec0565b60405180606001604052806000815260200160006001600160a01b03168152602001606081525090565b828054600181600116156101000203166002900490600052602060002090601f016020900481019282601f1061310b57805160ff1916838001178555613138565b82800160010185558215613138579182015b8281111561313857825182559160200191906001019061311d565b50613144929150613148565b5090565b5b80821115613144576000815560010161314956fe456e756d657261626c655365743a20696e646578206f7574206f6620626f756e647345524332303a207472616e7366657220746f20746865207a65726f2061646472657373416363657373436f6e74726f6c3a2073656e646572206d75737420626520616e2061646d696e20746f206772616e7445524332303a206275726e20616d6f756e7420657863656564732062616c616e636545435265636f7665723a20696e76616c6964207369676e6174757265202776272076616c756545524332303a20617070726f766520746f20746865207a65726f20616464726573734761734162737472616374696f6e3a20617574686f72697a6174696f6e2069732075736564206f722063616e63656c656445524332303a207472616e7366657220616d6f756e7420657863656564732062616c616e63654761734162737472616374696f6e3a20617574686f72697a6174696f6e2069732065787069726564416363657373436f6e74726f6c3a2073656e646572206d75737420626520616e2061646d696e20746f207265766f6b654e61746976654d6574615472616e73616374696f6e3a20494e56414c49445f5349474e45524761734162737472616374696f6e3a20696e76616c6964207369676e617475726545524332303a207472616e7366657220616d6f756e74206578636565647320616c6c6f77616e63655369676e657220616e64207369676e617475726520646f206e6f74206d6174636845524332303a206275726e2066726f6d20746865207a65726f206164647265737345524332303a207472616e736665722066726f6d20746865207a65726f20616464726573734761734162737472616374696f6e3a20617574686f72697a6174696f6e206973206e6f74207965742076616c696445524332303a20617070726f76652066726f6d20746865207a65726f206164647265737345435265636f7665723a20696e76616c6964207369676e6174757265202773272076616c756545524332303a2064656372656173656420616c6c6f77616e63652062656c6f77207a65726f416363657373436f6e74726f6c3a2063616e206f6e6c792072656e6f756e636520726f6c657320666f722073656c66a2646970667358221220d04f6aaf4f666e75a134071e089abd80786c6d0d959fed32ce71739c8abeed8364736f6c634300060c0033",
  "linkReferences": {},
  "deployedLinkReferences": {}
}